{
  "contractName": "crowd",
  "abi": [
    {
      "inputs": [],
      "stateMutability": "nonpayable",
      "type": "constructor"
    },
    {
      "inputs": [],
      "name": "owner",
      "outputs": [
        {
          "internalType": "address",
          "name": "",
          "type": "address"
        }
      ],
      "stateMutability": "view",
      "type": "function",
      "constant": true
    },
    {
      "inputs": [],
      "name": "poor",
      "outputs": [
        {
          "internalType": "address",
          "name": "",
          "type": "address"
        }
      ],
      "stateMutability": "view",
      "type": "function",
      "constant": true
    },
    {
      "inputs": [],
      "name": "total",
      "outputs": [
        {
          "internalType": "uint256",
          "name": "",
          "type": "uint256"
        }
      ],
      "stateMutability": "view",
      "type": "function",
      "constant": true
    },
    {
      "inputs": [],
      "name": "donate",
      "outputs": [],
      "stateMutability": "payable",
      "type": "function",
      "payable": true
    },
    {
      "inputs": [],
      "name": "register",
      "outputs": [],
      "stateMutability": "nonpayable",
      "type": "function"
    },
    {
      "inputs": [],
      "name": "distribute",
      "outputs": [],
      "stateMutability": "nonpayable",
      "type": "function"
    }
  ],
  "bytecode": "0x60806040526000805534801561001457600080fd5b5033600260006101000a81548173ffffffffffffffffffffffffffffffffffffffff021916908373ffffffffffffffffffffffffffffffffffffffff1602179055506102e5806100656000396000f3fe6080604052600436106100555760003560e01c80631aa3a0081461005a5780632ddbd13a1461007157806374a61e5f1461009c5780638da5cb5b146100dd578063e4fc6b6d1461011e578063ed88c68e14610135575b600080fd5b34801561006657600080fd5b5061006f61013f565b005b34801561007d57600080fd5b50610086610182565b6040518082815260200191505060405180910390f35b3480156100a857600080fd5b506100b1610188565b604051808273ffffffffffffffffffffffffffffffffffffffff16815260200191505060405180910390f35b3480156100e957600080fd5b506100f26101ae565b604051808273ffffffffffffffffffffffffffffffffffffffff16815260200191505060405180910390f35b34801561012a57600080fd5b506101336101d4565b005b61013d6102a2565b005b33600160006101000a81548173ffffffffffffffffffffffffffffffffffffffff021916908373ffffffffffffffffffffffffffffffffffffffff160217905550565b60005481565b600160009054906101000a900473ffffffffffffffffffffffffffffffffffffffff1681565b600260009054906101000a900473ffffffffffffffffffffffffffffffffffffffff1681565b600260009054906101000a900473ffffffffffffffffffffffffffffffffffffffff1673ffffffffffffffffffffffffffffffffffffffff163373ffffffffffffffffffffffffffffffffffffffff161461022e57600080fd5b600160009054906101000a900473ffffffffffffffffffffffffffffffffffffffff1673ffffffffffffffffffffffffffffffffffffffff166108fc6000549081150290604051600060405180830381858888f19350505050158015610298573d6000803e3d6000fd5b5060008081905550565b346000540160008190555056fea2646970667358221220169459445dfc3a0055229fd146d0ac892f0ab7bc6c90a2e81a66a4a7da8a6fe364736f6c63430007060033",
  "immutableReferences": {},
  "source": "// SPDX-License-Identifier: MIT\r\npragma solidity 0.7.6;\r\n\r\ncontract crowd {\r\n    uint256 public total=0;\r\n    address public poor;\r\n    address public owner;\r\n    constructor(){\r\n        owner=msg.sender;\r\n    }\r\n\r\n    function donate() payable public{\r\n        total=total+msg.value;\r\n    }\r\n    function register () public{\r\n        poor=msg.sender;\r\n    }\r\n\r\n    function distribute () public{\r\n        require(msg.sender==owner);\r\n        payable(poor).transfer(total);\r\n        total=0;\r\n    }\r\n}\r\n\r\n",
  "sourcePath": "C:\\Users\\Yash Kumar\\Desktop\\crowd\\contracts\\crowd.sol",
  "compiler": {
    "name": "solc",
    "version": "0.7.6+commit.7338295f.Emscripten.clang"
  },
  "schemaVersion": "3.4.4",
  "updatedAt": "2022-05-25T07:28:03.983Z",
  "networkType": "ethereum",
  "devdoc": {
    "kind": "dev",
    "methods": {},
    "version": 1
  },
  "userdoc": {
    "kind": "user",
    "methods": {},
    "version": 1
  }
}